S01F000052656E657361735F5241344D325F656E67696E655F54542E73726563B3
S3150000000078040020D905000065040000E905000019
S31500000010E9050000E9050000E9050000E905000022
S31500000020000000000000000000000000E9050000DC
S31500000030E905000000000000E9050000E9050000F0
S315000000407047FFFF022818BF704740F2200040F2B9
S31500000050CC71C2F20000C0F2000100F007B8FFFF49
S3150000006080B56F46FFF7ECFF002080BD80B56F4678
S3150000007045F25422C5F24F020260084600F002F82B
S31500000080002080BDF0B503AF4DF804BD044600F076
S315000000905FF840F2600CEFF31080012181F31088C5
S315000000A0C2F2000CDCF8001039B940F60351C4F274
S315000000B0080100220A7040220A70DCF800100131A3
S315000000C0CCF8001080F31088208820B340F6000E8C
S315000000D00021C4F2080E07E00EEB801040F8223033
S315000000E020880131814216D2606800EBC1029288F5
S315000000F050F83130100ADD03D2B2EDD50EEB801583
S3150000010055F8226026F4803645F8226023F48036BE
S3150000011045F82260E0E7EFF31081012080F31088B4
S31500000120DCF8000020B1DCF800000138CCF8000053
S31500000130DCF8000038B940F60350C4F2080000228B
S3150000014002708022027081F310885DF804BBF0BD56
S31500000150F0B503AF2DE9000F81B0044600880028F2
S3150000016061D043F240084EF2BB4940F2D87BC4F25C
S3150000017008080026C4F20109C0F2000B04E000BF23
S315000001802088013686424ED2002508E008F8150080
S31500000190C820012100F038F90135032DF0D0606840
S315000001A03BF8152000EBC60189889142F4D150F83E
S315000001B0360099F80010012200F0B85002FA05FA4C
S315000001C0B0F1807F0AEA010016D158B9012000F08B
S315000001D0DBF999F8000040EA0A0089F800000120DE
S315000001E000F0A6F918F915000028D5D418F815005E
S315000001F040F08000CAE700BF58B1012000F0C4F902
S3150000020099F8000020EA0A0089F80000012000F0B1
S315000002108FF918F91500B0F1FF3FBDDC18F815008D
S3150000022000F07F00B2E701B0BDE8000FF0BDFFFFB0
S315000002304EF22000C4F20100817940F20402006807
S31500000240C2F2000252F82110C0F3026021FA00F057
S3150000025040F26C01C2F2000108607047F0B503AFCE
S315000002602DE9000B4EF28044C4F201044CF2041551
S315000002704AF20350C4F2010524F8820C01202880BA
S3150000028028880028FCD1012025F8040C40F2040837
S3150000029042F600504CF2002C4EF22006C2F2000844
S315000002A0C0F2311041F200214FF4004243F20063E4
S315000002B0C0F6EB3CC4F20106C0F27A01C0F26E133E
S315000002C088E80F00C8E9042CB079316858F8200096
S315000002D0C1F3026140F26C09C840C2F20009C9F8D4
S315000002E00000002004F86D0C092086F882002078B2
S315000002F010B9607880073ED0207840B90120207080
S31500000300C820012100F080F820780128FCD10020C7
S31500000310607020700020B074307F0007FCD543F277
S31500000320021030810020B072307F8006FCD501209B
S31500000330287641F22120C2F2021030600520B07109
S31500000340B079316858F82000C1F30261C840C9F895
S31500000350000042F20C00C4F20000F12101700021FD
S3150000036000F8041CF02101704FF4254024F8820C9B
S31500000370BDE8000BF0BD4FF47A7000F001F8C9E754
S315000003807047FFFFB0B502AF43F22404C4F208047D
S315000003900025C8200121257100F036F8257000BF20
S315000003A020780028FCD1207840F00200207000BFA1
S315000003B020788007FCD4002004F8020C14F8020C04
S315000003C00028FBD1002004F11C0100BF11F8102009
S315000003D002F07F0201F8102011F91020002AFBD448
S315000003E001300328F2D1012000F0CEF84EF2BB41D5
S315000003F0C4F20101002201200A70BDE8B04000F0FD
S3150000040097B8FFFF7047FFFF484340F26C01C2F206
S31500000410000109684CF6002348F63812C3F69A33F1
S31500000420C0F24102B3FBF1F1904206D24FF47A7268
S315000004305043B0FBF1F0800807E08900B0FBF1F013
S31500000440904207D24FF47A714843002808BF70479C
S3150000045000F004B84FF0FF3000F000B80138002873
S31500000460FCD17047F0B503AF2DE9000B46F220181A
S31500000470C4F20008B8F80000B8F8201040F22805C9
S3150000048001EA00091FFA89F60024C2F2000502E01B
S3150000049001340E2C0AD026FA04F0C007F8D055F81D
S315000004A024100029F4D0E0B28847F1E7A8F81090AC
S315000004B0BDE8000BF0BDFFFFF0B503AF4DF804BD7E
S315000004C084B048F248040320C4F2000400F05CF84B
S315000004D040F2DE71C0F200016FF0FF000E8820606E
S315000004E04FF0FF3003900290002E01901CBF6FF07A
S315000004F0010001904EF28032002001A9CEF20002E6
S3150000050051F8203004EB8005AB6242F82030013010
S315000005100328F5D1032000F00BF8002E1EBF46F28B
S315000005200030C4F20000066004B05DF804BBF0BD04
S315000005300122EFF3108182F3108840F26402C2F2C6
S31500000540000232F8103023B132F81030013B22F8A5
S31500000550103032F8102012B181F3108870474EF235
S31500000560FE3CC4F2010C40F2E072BCF80030C0F26E
S31500000570000232F8100043F4254222EA0000ACF8EB
S31500000580000081F31088704780B56F460122EFF3B3
S31500000590108182F3108840F26402C2F2000232F83F
S315000005A010308BB94EF2FE3C40F2E073C4F2010CFF
S315000005B0C0F20003BCF800E033F8103043EA0E0343
S315000005C043F42543ACF8003032F81030013322F8FA
S315000005D0103081F3108880BD80B56F4600F006F8B4
S315000005E0FFF73EFDFEE7FFFF00BE7047B0B502AF66
S315000005F04EF6085040F20004CEF200004FF47001AF
S31500000600C0F20004C0F8801004600020FFF71AFD55
S31500000610FFF724FE0120FFF715FD206840F2740164
S31500000620A0F5806080F30A8840F22000C2F2000044
S31500000630C2F20001091A00F07BF840F2000040F215
S315000006400001C2F20000C2F200010A1A40F2E8718B
S31500000650C0F2000100F070F840F20004C2F200049B
S31500000660204600F045F8204600F058F840F2000019
S3150000067040F20001C2F20000C2F20001091A8C1019
S31500000680012C06DB051F00BF55F8040F8047013C0F
S31500000690FAD1FFF7CDFDFFF775FE0320FFF774FFD4
S315000006A040F60E510820C4F208014FF6FF7200BF53
S315000006B0013821F8022FFBD10320FFF739FF032071
S315000006C0FFF762FF0420C4F20E00002101604160C2
S315000006D08160C1600320FFF72BFF0220FFF7B2FC09
S315000006E0FFF7EAFE0020BDE8B040FFF78BBEFFFF34
S315000006F0D0B502AF05490446054A00F01DF8054885
S315000007000549204400F014F8D0BD00BFE8070000FA
S315000007100100000001000000000000000249401A2C
S3150000072002490860704700BF080000007000002002
S315000007300A46002100F00AB8D0B502AF00239A425B
S3150000074003D0CC5CC4540133F9E7D0BD00239A42F0
S3150000075008BF7047C1540133F9E7FFFF00000905E0
S31500000760352E392E30004275696C742077697468AD
S315000007702052656E6573617320416476616E6365B0
S315000007806420466C657869626C6520536F66747781
S31500000790617265205061636B61676520766572736F
S315000007A0696F6E20352E392E3000FFFF00000100E4
S315000007B0080100000000010009010000000001001E
S315000007C00A01000000000100000300000400000010
S315000007D0AC0700000000000002040304040400004B
S30D000007E00100020008001000F0
S306000007E8FF0B
S3150100A100FFFFFFFFFFFFFFFFFFFFFFFFFFFFFFFF58
S3090100A134FFFFFFFF24
S3150100A200FFFDFFFFFFFFFFFFFFFFFFFFFFFFFFFF59
S3150100A210FFFFFFFFFFFFFFFFFFFFFFFFFFFFFFFF47
S3150100A220FFFFFFFFFFFFFFFFFFFFFFFFFFFFFFFF37
S3150100A230FFFFFFFFFFFFFFFFFFFFFFFFFFFFFFFF27
S3150100A240FFFFFFFFFFFFFFFFFFFFFFFFFFFFFFFF17
S3150100A250FFFFFFFFFFFFFFFFFFFFFFFFFFFFFFFF07
S3150100A260FFFFFFFFFFFFFFFFFFFFFFFFFFFFFFFFF7
S3150100A270FFFFFFFFFFFFFFFFFFFFFFFFFFFFFFFFE7
S3150100A280F8F8FFFFFFFFFFFFFFFFFFFFFFFFFFFFE5
S3150100A290FFFFFFFFFFFFFFFFFFFFFFFFFFFFFFFFC7
S3150100A2A0FFFFFFFFFFFFFFFFFFFFFFFFFFFFFFFFB7
S3150100A2B0FFFFFFFFFFFFFFFFFFFFFFFFFFFFFFFFA7
S3150100A2C0FFFFFFFFFFFFFFFFFFFFFFFFFFFFFFFF97
S705000005D91C
